{
  "contractName": "RentalContract",
  "abi": [
    {
      "inputs": [],
      "name": "rentalCount",
      "outputs": [
        {
          "internalType": "uint256",
          "name": "",
          "type": "uint256"
        }
      ],
      "stateMutability": "view",
      "type": "function",
      "constant": true
    },
    {
      "inputs": [
        {
          "internalType": "uint256",
          "name": "",
          "type": "uint256"
        }
      ],
      "name": "rentals",
      "outputs": [
        {
          "internalType": "uint256",
          "name": "id",
          "type": "uint256"
        },
        {
          "internalType": "address",
          "name": "owner",
          "type": "address"
        },
        {
          "internalType": "address",
          "name": "tenant",
          "type": "address"
        },
        {
          "internalType": "uint256",
          "name": "rent",
          "type": "uint256"
        },
        {
          "internalType": "string",
          "name": "pdfHash",
          "type": "string"
        },
        {
          "internalType": "bool",
          "name": "signed",
          "type": "bool"
        }
      ],
      "stateMutability": "view",
      "type": "function",
      "constant": true
    },
    {
      "inputs": [
        {
          "internalType": "address",
          "name": "_tenant",
          "type": "address"
        },
        {
          "internalType": "uint256",
          "name": "_rent",
          "type": "uint256"
        },
        {
          "internalType": "string",
          "name": "_pdfHash",
          "type": "string"
        }
      ],
      "name": "createRental",
      "outputs": [],
      "stateMutability": "nonpayable",
      "type": "function"
    },
    {
      "inputs": [
        {
          "internalType": "uint256",
          "name": "_id",
          "type": "uint256"
        }
      ],
      "name": "signContract",
      "outputs": [],
      "stateMutability": "nonpayable",
      "type": "function"
    },
    {
      "inputs": [
        {
          "internalType": "uint256",
          "name": "_id",
          "type": "uint256"
        }
      ],
      "name": "payRent",
      "outputs": [],
      "stateMutability": "payable",
      "type": "function",
      "payable": true
    }
  ],
  "bytecode": "0x60806040526000805534801561001457600080fd5b50610dc3806100246000396000f3fe60806040526004361061004a5760003560e01c80630a294ab61461004f5780639537e8d11461007a578063af94a1d1146100a3578063d9e8843f146100e5578063efb7145214610101575b600080fd5b34801561005b57600080fd5b5061006461012a565b604051610071919061068c565b60405180910390f35b34801561008657600080fd5b506100a1600480360381019061009c91906106e7565b610130565b005b3480156100af57600080fd5b506100ca60048036038101906100c591906106e7565b6101cf565b6040516100dc96959493929190610800565b60405180910390f35b6100ff60048036038101906100fa91906106e7565b6102e0565b005b34801561010d57600080fd5b50610128600480360381019061012391906109c9565b61050a565b005b60005481565b6001600082815260200190815260200160002060020160009054906101000a900473ffffffffffffffffffffffffffffffffffffffff1673ffffffffffffffffffffffffffffffffffffffff163373ffffffffffffffffffffffffffffffffffffffff161461019e57600080fd5b600180600083815260200190815260200160002060050160006101000a81548160ff02191690831515021790555050565b60016020528060005260406000206000915090508060000154908060010160009054906101000a900473ffffffffffffffffffffffffffffffffffffffff16908060020160009054906101000a900473ffffffffffffffffffffffffffffffffffffffff169080600301549080600401805461024a90610a67565b80601f016020809104026020016040519081016040528092919081815260200182805461027690610a67565b80156102c35780601f10610298576101008083540402835291602001916102c3565b820191906000526020600020905b8154815290600101906020018083116102a657829003601f168201915b5050505050908060050160009054906101000a900460ff16905086565b6000600160008381526020019081526020016000206040518060c0016040529081600082015481526020016001820160009054906101000a900473ffffffffffffffffffffffffffffffffffffffff1673ffffffffffffffffffffffffffffffffffffffff1673ffffffffffffffffffffffffffffffffffffffff1681526020016002820160009054906101000a900473ffffffffffffffffffffffffffffffffffffffff1673ffffffffffffffffffffffffffffffffffffffff1673ffffffffffffffffffffffffffffffffffffffff168152602001600382015481526020016004820180546103d090610a67565b80601f01602080910402602001604051908101604052809291908181526020018280546103fc90610a67565b80156104495780601f1061041e57610100808354040283529160200191610449565b820191906000526020600020905b81548152906001019060200180831161042c57829003601f168201915b505050505081526020016005820160009054906101000a900460ff1615151515815250509050806040015173ffffffffffffffffffffffffffffffffffffffff163373ffffffffffffffffffffffffffffffffffffffff16146104ab57600080fd5b806060015134146104bb57600080fd5b806020015173ffffffffffffffffffffffffffffffffffffffff166108fc349081150290604051600060405180830381858888f19350505050158015610505573d6000803e3d6000fd5b505050565b60008081548092919061051c90610ac7565b91905055506040518060c0016040528060005481526020013373ffffffffffffffffffffffffffffffffffffffff1681526020018473ffffffffffffffffffffffffffffffffffffffff1681526020018381526020018281526020016000151581525060016000805481526020019081526020016000206000820151816000015560208201518160010160006101000a81548173ffffffffffffffffffffffffffffffffffffffff021916908373ffffffffffffffffffffffffffffffffffffffff16021790555060408201518160020160006101000a81548173ffffffffffffffffffffffffffffffffffffffff021916908373ffffffffffffffffffffffffffffffffffffffff16021790555060608201518160030155608082015181600401908161064a9190610cbb565b5060a08201518160050160006101000a81548160ff021916908315150217905550905050505050565b6000819050919050565b61068681610673565b82525050565b60006020820190506106a1600083018461067d565b92915050565b6000604051905090565b600080fd5b600080fd5b6106c481610673565b81146106cf57600080fd5b50565b6000813590506106e1816106bb565b92915050565b6000602082840312156106fd576106fc6106b1565b5b600061070b848285016106d2565b91505092915050565b600073ffffffffffffffffffffffffffffffffffffffff82169050919050565b600061073f82610714565b9050919050565b61074f81610734565b82525050565b600081519050919050565b600082825260208201905092915050565b60005b8381101561078f578082015181840152602081019050610774565b60008484015250505050565b6000601f19601f8301169050919050565b60006107b782610755565b6107c18185610760565b93506107d1818560208601610771565b6107da8161079b565b840191505092915050565b60008115159050919050565b6107fa816107e5565b82525050565b600060c082019050610815600083018961067d565b6108226020830188610746565b61082f6040830187610746565b61083c606083018661067d565b818103608083015261084e81856107ac565b905061085d60a08301846107f1565b979650505050505050565b61087181610734565b811461087c57600080fd5b50565b60008135905061088e81610868565b92915050565b600080fd5b600080fd5b7f4e487b7100000000000000000000000000000000000000000000000000000000600052604160045260246000fd5b6108d68261079b565b810181811067ffffffffffffffff821117156108f5576108f461089e565b5b80604052505050565b60006109086106a7565b905061091482826108cd565b919050565b600067ffffffffffffffff8211156109345761093361089e565b5b61093d8261079b565b9050602081019050919050565b82818337600083830152505050565b600061096c61096784610919565b6108fe565b90508281526020810184848401111561098857610987610899565b5b61099384828561094a565b509392505050565b600082601f8301126109b0576109af610894565b5b81356109c0848260208601610959565b91505092915050565b6000806000606084860312156109e2576109e16106b1565b5b60006109f08682870161087f565b9350506020610a01868287016106d2565b925050604084013567ffffffffffffffff811115610a2257610a216106b6565b5b610a2e8682870161099b565b9150509250925092565b7f4e487b7100000000000000000000000000000000000000000000000000000000600052602260045260246000fd5b60006002820490506001821680610a7f57607f821691505b602082108103610a9257610a91610a38565b5b50919050565b7f4e487b7100000000000000000000000000000000000000000000000000000000600052601160045260246000fd5b6000610ad282610673565b91507fffffffffffffffffffffffffffffffffffffffffffffffffffffffffffffffff8203610b0457610b03610a98565b5b600182019050919050565b60008190508160005260206000209050919050565b60006020601f8301049050919050565b600082821b905092915050565b600060088302610b717fffffffffffffffffffffffffffffffffffffffffffffffffffffffffffffffff82610b34565b610b7b8683610b34565b95508019841693508086168417925050509392505050565b6000819050919050565b6000610bb8610bb3610bae84610673565b610b93565b610673565b9050919050565b6000819050919050565b610bd283610b9d565b610be6610bde82610bbf565b848454610b41565b825550505050565b600090565b610bfb610bee565b610c06818484610bc9565b505050565b5b81811015610c2a57610c1f600082610bf3565b600181019050610c0c565b5050565b601f821115610c6f57610c4081610b0f565b610c4984610b24565b81016020851015610c58578190505b610c6c610c6485610b24565b830182610c0b565b50505b505050565b600082821c905092915050565b6000610c9260001984600802610c74565b1980831691505092915050565b6000610cab8383610c81565b9150826002028217905092915050565b610cc482610755565b67ffffffffffffffff811115610cdd57610cdc61089e565b5b610ce78254610a67565b610cf2828285610c2e565b600060209050601f831160018114610d255760008415610d13578287015190505b610d1d8582610c9f565b865550610d85565b601f198416610d3386610b0f565b60005b82811015610d5b57848901518255600182019150602085019450602081019050610d36565b86831015610d785784890151610d74601f891682610c81565b8355505b6001600288020188555050505b50505050505056fea2646970667358221220df44cdd64bd734f7816f1f01021a516f8d7a9da2c95b8b9c539a7570d141edb964736f6c63430008130033",
  "immutableReferences": {},
  "source": "pragma solidity ^0.8.19;\r\n\r\ncontract RentalContract {\r\n\r\n    uint public rentalCount = 0;\r\n\r\n    struct Rental {\r\n        uint id;\r\n        address owner;\r\n        address tenant;\r\n        uint rent;\r\n        string pdfHash;\r\n        bool signed;\r\n    }\r\n\r\n    mapping(uint => Rental) public rentals;\r\n//------------creation contrat ------------------\r\n    function createRental(\r\n        address _tenant,\r\n        uint _rent,\r\n        string memory _pdfHash\r\n    ) public {\r\n\r\n        rentalCount++;\r\n\r\n        rentals[rentalCount] = Rental(\r\n            rentalCount,\r\n            msg.sender,\r\n            _tenant,\r\n            _rent,\r\n            _pdfHash,\r\n            false\r\n        );\r\n    }\r\n\r\n    //----signature contrat ------------------\r\n    function signContract(uint _id) public {\r\n\r\n        require(msg.sender == rentals[_id].tenant);\r\n\r\n        rentals[_id].signed = true;\r\n    }\r\n\r\n    //-----------payement contrat-------------------\r\n    function payRent(uint _id) public payable {\r\n\r\n        Rental memory rental = rentals[_id];\r\n\r\n        require(msg.sender == rental.tenant);\r\n\r\n        require(msg.value == rental.rent);\r\n\r\n        payable(rental.owner).transfer(msg.value);\r\n    }\r\n}",
  "sourcePath": "D:\\Bureau\\BLOCKCHAIN\\systeme de gestion des contrat de location immobilière via la blockchain\\blockchain\\contracts\\RentalContract.sol",
  "compiler": {
    "name": "solc",
    "version": "0.8.19+commit.7dd6d404.Emscripten.clang"
  },
  "schemaVersion": "3.4.16",
  "updatedAt": "2026-05-16T13:42:29.398Z",
  "networkType": "ethereum",
  "devdoc": {
    "kind": "dev",
    "methods": {},
    "version": 1
  },
  "userdoc": {
    "kind": "user",
    "methods": {},
    "version": 1
  }
}